{
  "contractName": "StudentContract",
  "abi": [
    {
      "inputs": [],
      "stateMutability": "nonpayable",
      "type": "constructor"
    },
    {
      "inputs": [],
      "name": "student",
      "outputs": [
        {
          "internalType": "address",
          "name": "",
          "type": "address"
        }
      ],
      "stateMutability": "view",
      "type": "function"
    },
    {
      "inputs": [],
      "name": "studentNumber",
      "outputs": [
        {
          "internalType": "uint256",
          "name": "",
          "type": "uint256"
        }
      ],
      "stateMutability": "view",
      "type": "function"
    },
    {
      "inputs": [
        {
          "internalType": "uint256",
          "name": "_studentNumber",
          "type": "uint256"
        }
      ],
      "name": "setStudentNumber",
      "outputs": [],
      "stateMutability": "nonpayable",
      "type": "function"
    },
    {
      "inputs": [],
      "name": "getStudentNumber",
      "outputs": [
        {
          "internalType": "uint256",
          "name": "",
          "type": "uint256"
        }
      ],
      "stateMutability": "nonpayable",
      "type": "function"
    }
  ],
  "bytecode": "0x608060405234801561001057600080fd5b5033600160006101000a81548173ffffffffffffffffffffffffffffffffffffffff021916908373ffffffffffffffffffffffffffffffffffffffff160217905550600060026000600160009054906101000a900473ffffffffffffffffffffffffffffffffffffffff1673ffffffffffffffffffffffffffffffffffffffff1673ffffffffffffffffffffffffffffffffffffffff16815260200190815260200160002081905550610290806100c86000396000f3fe608060405234801561001057600080fd5b506004361061004c5760003560e01c8063484a0d4114610051578063699450e81461006f578063b1a273771461008d578063b6037759146100ab575b600080fd5b6100596100c7565b6040516100669190610185565b60405180910390f35b6100776100cd565b60405161008491906101e1565b60405180910390f35b6100956100f3565b6040516100a29190610185565b60405180910390f35b6100c560048036038101906100c0919061022d565b6100fc565b005b60005481565b600160009054906101000a900473ffffffffffffffffffffffffffffffffffffffff1681565b60008054905090565b806000819055508060026000600160009054906101000a900473ffffffffffffffffffffffffffffffffffffffff1673ffffffffffffffffffffffffffffffffffffffff1673ffffffffffffffffffffffffffffffffffffffff1681526020019081526020016000208190555050565b6000819050919050565b61017f8161016c565b82525050565b600060208201905061019a6000830184610176565b92915050565b600073ffffffffffffffffffffffffffffffffffffffff82169050919050565b60006101cb826101a0565b9050919050565b6101db816101c0565b82525050565b60006020820190506101f660008301846101d2565b92915050565b600080fd5b61020a8161016c565b811461021557600080fd5b50565b60008135905061022781610201565b92915050565b600060208284031215610243576102426101fc565b5b600061025184828501610218565b9150509291505056fea2646970667358221220e0ce6a27ee16072c3b31b7ff70a21be7e7bb92f69504bcf18a759e40d3bffd7c64736f6c63430008110033",
  "immutableReferences": {},
  "source": "pragma solidity >=0.5.0;\r\ncontract StudentContract {\r\n  uint public studentNumber;\r\n  address public student;\r\n  mapping ( address => uint ) studentToStudentNumber;\r\n\r\n  constructor () public {\r\n    student = msg.sender;\r\n    studentToStudentNumber [ student ] = 0;\r\n  }\r\n\r\n  function setStudentNumber ( uint _studentNumber ) public {\r\n    studentNumber = _studentNumber;\r\n    studentToStudentNumber [ student ] = _studentNumber;\r\n  }\r\n\r\n  function getStudentNumber() public returns (uint) {\r\n    return studentNumber;\r\n  }\r\n}",
  "sourcePath": "C:\\Users\\joell\\Documents\\ETS\\2022\\2022-Automne\\LOG721-Intergiciels pour applications distribués\\LAB\\lab03\\studentNumberContract\\contracts\\StudentContract.sol",
  "compiler": {
    "name": "solc",
    "version": "0.8.17+commit.8df45f5f.Emscripten.clang"
  },
  "schemaVersion": "3.4.11",
  "updatedAt": "2022-11-26T17:11:56.224Z",
  "networkType": "ethereum",
  "devdoc": {
    "kind": "dev",
    "methods": {},
    "version": 1
  },
  "userdoc": {
    "kind": "user",
    "methods": {},
    "version": 1
  }
}